:100000000C94A2010C94E9010C94E9010C94E9010F
:100010000C94E9010C94E9010C94E9010C94E901B8
:100020000C94E9010C94E9010C94BB1D0C948D1EF9
:100030000C9452160C94E9010C94E9010C94E9011A
:100040000C94E9010C94E9010C94E9010C94E90188
:100050000C94E9010C94BA160C94E9010C94E90192
:100060000C94E9010C94E9010C94E9010C94E90168
:100070000C94E9010C94E9010C94E9010C94E90158
:100080000C94E9010C94E9010C94E9010C94E90148
:100090000C94E9010C94E9010C94E9010C94E90138
:1000A0000C94E9010C94E9010C94E9012F06310646
:1000B0003C0633063506370639063B063E06400643
:1000C00042064D064406460648064A064C064F06BA
:1000D000940C940CC60CC60C040D240D940E940EB6
:1000E000660D940E130E130E840E940E940E8D0E48
:1000F000200E200E200E200E200E200E200E200E90
:10010000200E200E200E200E200E200E200E200E7F
:10011000310E3F0E460E4D0E570E230F230F350F97
:10012000350F2C0F350F350F350F230F230F310FE0
:10013000350F350F310FFA1E211F1320211F1320F9
:100140006D1F901F1320E61FF51F35001E001F00B6
:100150002000210022002300240025002600270083
:100160002D00000000002B0014001A0008001500EC
:1001700017001C0018000C001200130031000000D2
:100180000000290004001600070009000A000B0007
:100190000D000E000F003300340000000000E100ED
:1001A0001D001B000600190005001100100036009C
:1001B0003700520038000000000000000000460038
:1001C000E20000000000000000002E0050000000CF
:1001D0000000000000000000E2004C001E00E200F1
:1001E0004C001E002E0050001F002E0000000000DA
:1001F0000000040330000000240341006E0064008E
:100200007200650064006F00780020004B006500FC
:10021000790062006F0061007200640000000E034C
:1002200041006E0064007200650077000000040366
:10023000090409023B00020100A0FA0904000001C0
:10024000030101000921110100012240000705817D
:100250000308000A0904010001030000000921113C
:100260000100012285000705820320000A12011007
:100270000100000008EDFE0000000101020301057D
:10028000010902A10185020901A10005091901293D
:1002900005150025019505750181029501750381FC
:1002A000010501093009311581257F950275088105
:1002B0000609381581257F950175088106050C0A08
:1002C00038021581257F950175088106C0C005019A
:1002D0000980A10185031601002603001A81002A66
:1002E0008300751095018100C0050C0901A10185ED
:1002F00004160100269C021A01002A9C0275109522
:10030000018100C005010906A101050719E029E7DF
:100310001500250195087501810295017508810177
:1003200005081901290595057501910295017503C7
:1003300091010507190029FF150026FF0095067594
:10034000088100C011241FBECFEFDAE0DEBFCDBFB1
:1003500004B603FE27C08091110290911202A09171
:100360001302B09114028730904BA740B04BD1F4E8
:1003700010921102109212021092130210921402A3
:1003800014BE84B7877F84BF0FB6F894A895809178
:100390006000886180936000109260000FBEE0E012
:1003A000F8E3099511E0A0E0B1E0E2E7F1E402C072
:1003B00005900D92A832B107D9F722E0A8E2B1E08A
:1003C00001C01D92A131B207E1F70E94DF1A0C941F
:1003D000B7200C9400001092B9008AE08093B80016
:1003E0000895EF92FF920F931F93CF93DF93182FEF
:1003F000EB011092BC0084EA8093BC000E9484163A
:100400007C019091BC0097FD0EC0CF3F8FEFD807C5
:10041000C1F30E9484168E199F098C179D0788F3DB
:100420008EEF9FEF2EC09091B900987F983041F0E9
:100430009091B900987F903119F08FEF9FEF21C014
:100440001093BB0084E88093BC000E9484168C014A
:100450009091BC0097FD0CC0CF3F8FEFD807C1F340
:100460000E948416801B910B8C179D0788F3D8CFB0
:100470008091B900887F883111F08034F1F680E0F6
:1004800090E0DF91CF911F910F91FF90EF90089531
:100490000F931F93CF93DF93EB018093BB0084E80E
:1004A0008093BC000E9484168C019091BC0097FD43
:1004B0000EC0CF3F8FEFD807C1F30E948416801B78
:1004C000910B8C179D0788F38EEF9FEF0CC0209146
:1004D000B900287F81E090E0283211F480E090E0BC
:1004E000919581959109DF91CF911F910F91089579
:1004F0000F931F93CF93DF93EC0184E88093BC00AC
:100500000E9484168C019091BC0097FD0EC0CF3FD5
:100510008FEFD807C1F30E948416801B910B8C17B4
:100520009D0788F38EEF9FEF03C08091BB0090E0A2
:10053000DF91CF911F910F9108950F931F93CF9348
:10054000DF93EC0184E98093BC000E9484168C0147
:100550009091BC0094FF0EC0CF3F8FEFD807C1F33E
:100560000E948416801B910B8C179D0788F38EEFD9
:100570009FEF02C080E090E0DF91CF911F910F913B
:10058000089580E290E090930101809300018091B2
:10059000280181110EC00E94EB0181E080932801A7
:1005A0002FEF83ED90E3215080409040E1F700C0B1
:1005B000000064E670E080E40E94F1019093010184
:1005C00080930001892B09F084C064E670E080E02C
:1005D0000E9448029093010180930001892B09F049
:1005E00078C064E670E08FE70E94480290930101B2
:1005F00080930001892B09F06CC064E670E080E014
:100600000E9448029093010180930001892B09F018
:1006100060C084E690E00E949D0264E670E080E4A1
:100620000E94F1019093010180930001892B09F050
:1006300050C064E670E08CE00E9448029093010193
:1006400080930001892B09F044C064E670E08FE7D5
:100650000E9448029093010180930001892BC9F503
:1006600064E670E080E00E9448029093010180936C
:100670000001892B71F584E690E00E949D0264E6FA
:1006800070E080E40E94F1019093010180930001E9
:10069000892BF9F464E670E084E10E9448029093AB
:1006A000010180930001892BA1F464E670E08FEFD3
:1006B0000E9448029093010180930001892B49F424
:1006C00064E670E08FEF0E944802909301018093EE
:1006D000000184E690E00E949D02809100019091CB
:1006E0000101892B11F40E945705809100010895A2
:1006F00064E670E080E40E94F10190930101809330
:10070000000184E690E00E949D028091000190919A
:100710000101892B11F00C945A050C945705CF93C5
:100720002091000130910101232B59F5C82F64E677
:1007300070E080E40E94F101909301018093000138
:10074000892BD1F464E670E083E10E944802909323
:10075000010180930001892B79F481E090E001C0D0
:10076000880FCA95EAF764E670E080950E94480217
:10077000909301018093000184E690E0CF910C9466
:100780009D02CF910895CF93809100019091010136
:10079000892BD1F564E670E080E40E94F10190932A
:1007A000010180930001892B11F0C0E027C064E6AD
:1007B00070E082E10E944802909301018093000161
:1007C000892B99F764E670E081E40E94F10190932F
:1007D000010180930001892B41F784E690E00E949B
:1007E000780297FF05C09093010180930001DDCF4F
:1007F000C82FC095109201011092000184E690E08C
:100800000E949D028C2F01C080E0CF910895089531
:1008100008950C9408040E94C10290E09093010195
:1008200080930001ECE1F1E041E050E026E02E0F82
:100830009191A92FA295AF70B0E091963C919197BC
:100840009F70BA0102C0660F771F9A95E2F7CB013D
:100850008095832391968C932E13EACFA5E1B1E086
:1008600041E050E027E02A0F8D91E82FE295EF70EC
:10087000F0E031A18F70BA0102C0660F771F8A9530
:10088000E2F7CB01962F9095932391A392A1892B08
:1008900082A32A13E9CFE7E3F1E0ABE2B1E01192E2
:1008A00011921D921D9271E0E334F707C1F70C9489
:1008B00063052F923F924F925F926F927F928F9239
:1008C0009F92AF92BF92CF92DF92EF92FF920F93DF
:1008D0001F93CF93DF938091290190912A01811575
:1008E00020E2920709F510922A01109229010E9434
:1008F00078038091000190910101892B39F00E94C9
:10090000C10290E090930101809300018CE1A82E38
:1009100081E0B82E9BE2C92E91E0D92E8601712C80
:1009200088248394912C5BC0019690932A01809334
:100930002901ECCFF0EAFA95F1F7E5E1F1E085E085
:1009400090E06191A62FA295AF70B0E090962C91A7
:10095000D8014D915C9130E06F7002C035952795BC
:100960006A95E2F720FD63C09401082E02C0220FB1
:10097000331F0A94E2F7242B352BD8012D933C9397
:1009800001968C309105E9F680910001909101016A
:10099000892B51F40E94C303282F2F77F8018081FF
:1009A0009181822B9183808389A1682269A28AA187
:1009B000E82AEAA20E5F1F4FD2018D919C91281662
:1009C000390649F0B1E0B09343010E948416909338
:1009D0004501809344017394E6E07E1659F12801A5
:1009E000D8012D903C9011971D921C92F501819198
:1009F0005F01C82FC295CF70D0E099A18F707401AC
:100A000001C0EE0C8A95EAF7892F8E2989A38AA165
:100A10006E2C609486218AA380910001909101013F
:100A2000892B09F087CF872D0E948F0383CF20E089
:100A300030E0A1CF809143018823B9F08091440137
:100A4000909145010E949016069778F0E7E3F1E057
:100A5000D6018D919D916D0181939193B7E3CB1652
:100A6000B1E0DB06A9F7109243010E946B0581E01B
:100A7000DF91CF911F910F91FF90EF90DF90CF907A
:100A8000BF90AF909F908F907F906F905F904F90AE
:100A90003F902F900895E82FF0E0EE0FFF1FE95CE4
:100AA000FE4F80819181089508950C940704209A47
:100AB000289808952098289A089581E0089581E063
:100AC00008950C945F050E945015811102C00E9488
:100AD000BE150C9455050C94090408950C946D05ED
:100AE0000C946E0508950E94110F0E9472052FEF5D
:100AF00084E39CE0215080409040E1F700C000007A
:100B00000C94E016FF920F931F93CF93DF938C0109
:100B1000FC01C081D18180916001811113C082816B
:100B2000882349F0CE010E944314F82E682FCE018D
:100B30000E94E81304C0CE010E941714F82EBE01D3
:100B40008F2D04C0CE010E944314BE010E940307F2
:100B5000EC01B8010E946105882309F449C1C63D32
:100B6000FCE5DF0709F4ABC0B0F4C531ECE5DE0706
:100B700068F4C230FCE5DF0708F04FC0C1158CE512
:100B8000D80701F1C130DC4529F125C1C631DC456A
:100B900009F4FAC020C1CB3D8CE5D80771F150F4BF
:100BA000C73DFCE5DF0709F4ADC0C83DDC4509F4ED
:100BB000D0C011C1CC3DECE5DE0731F1CD3DDC45C7
:100BC000A1F009C1F8018281882309F411C10E94B2
:100BD00073050EC1F8018281882309F409C180914F
:100BE000E50181608093E50103C1F80182818823DA
:100BF00009F4FEC00E94BE15FBC0F8018281882363
:100C000009F4F6C080E006C0F8018281882309F467
:100C1000EFC082E00E947E1BEBC0F8018281882336
:100C200009F4DEC00E945015811102C00E94BE1559
:100C30000E94631590E09093030280930202FE01EC
:100C4000E350FC45E231F10530F4EA5AFF4F809160
:100C500002020C945B2080910202816027C08260B6
:100C600025C0846023C0806121C080621FC0806471
:100C70001DC080681BC08460886018C08E7F16C04D
:100C80008D7F14C08B7F12C08F7E10C08F7D0EC0F1
:100C90008F7B0CC08F770AC08B7F877F07C087FB55
:100CA000222720F991E0922790FB87F98093020296
:100CB000809102020E9467150E94110F99C0F801ED
:100CC0008281882351F010924B010E9484169093E8
:100CD00048018093470182E022C080914B0181113D
:100CE0000FC080914701909148010E949016883C66
:100CF000910530F486E20E94CA0A86E20E94E80B5F
:100D000082E024C0F8018281882361F010924C01B6
:100D10000E94841690934A018093490180E20E94C8
:100D2000500C66C080914C0181110FC08091490127
:100D300090914A010E949016883C910530F487E218
:100D40000E94CA0A87E20E94E80B80E20E94570CC8
:100D50004FC0F80182818111D9CF80914C0181115E
:100D6000F4CF8091490190914A010E949016883CED
:100D7000910558F780E20E94570C88E20E94CA0A47
:100D800088E20E94E80B34C00E941415282FF80155
:100D900082814091020150910301882379F02A7ADF
:100DA00091E009F490E090934601911102C069E24C
:100DB00001C065E3CA010E94F2150AC08091460194
:100DC000811102C069E201C065E3CA010E94F41505
:100DD0000E94E1140DC081E080934B0180934C018F
:100DE000C801DF91CF911F910F91FF900C945D0589
:100DF00080E0DF91CF911F910F91FF90089580E0E7
:100E000090E0089508959EE0799FF001112494E503
:100E1000899FE00DF11D1124E60FF11DEE0FFF1F5C
:100E2000E65BFE4F859194910895880F991FFC0110
:100E3000EE50FE4F859194910895CF93DF930E94D9
:100E400003070E94CE08EC01811520E59207F0F51A
:100E5000811530E4930708F020C1883E910500F524
:100E6000803E910508F096C1883A910570F4853A64
:100E7000910508F09AC08130910509F48BC108F4FE
:100E80003CC1049708F086C138C18F3B910508F436
:100E900097C0803C910508F430C1805C9109EFC097
:100EA0008115904258F4C11581E0D80708F072C14D
:100EB000C03FD10508F421C1D0656CC1C11590E3D4
:100EC000D90708F0E0C0CE019F70D9C0811525E593
:100ED000920708F043C0811534E5930708F0F4C089
:100EE000811542E5940708F5C11581E5D80708F09A
:100EF000D7C02C2F237081E090E002C0880F991F8B
:100F00002A95E2F79C689E0174E0369527957A95BC
:100F1000E1F72370922BCF70C695C69530E2C39F40
:100F2000E0011124C82BD92B35C1869586959E01E9
:100F300023703327C115D34508F0B7C040E2849F22
:100F4000C0011124C1E0D0E002C0CC0FDD1F2A9502
:100F5000E2F78C2B9D2BEC01DC681CC1811529E587
:100F6000920778F4811538E5930708F0B2C081152F
:100F7000964508F0C2C0CF71DD27DC2FCC27D062A8
:100F800009C1C1158AE5D80708F4A8C0CE0190565A
:100F90008115904208F0B1C08D2F8F710E944B09CE
:100FA000DD27D0628F71D82BF5C0853A910509F401
:100FB000A7C0863A910509F0A6C0C2E8D0E4EAC00D
:100FC000883A910509F4A2C0893A910509F4A1C0B3
:100FD0008A3A910509F4A0C08B3A910509F49FC0A3
:100FE0008C3A910509F49EC08B3B910509F49DC094
:100FF0008C3B910509F49CC08D3A910509F49BC086
:10100000803B910509F49AC08E3A910509F499C084
:101010008F3A910509F498C0813B910509F497C076
:10102000823B910509F496C0833B910509F495C074
:10103000843B910509F494C0853B910509F493C064
:10104000863B910509F492C0873B910509F491C054
:10105000883B910509F490C0893B910509F48FC044
:101060008D3B910509F48EC08E3B910509F48DC02E
:101070008A3B910509F48CC0C0E0D4E48BC00E9487
:101080001507EC0187C0CE019927D3FF03C0EC01FF
:10109000D86C80C0EC01D06C7DC0DF70D06A7AC0A3
:1010A000DC2FCC27C16FD06A75C040E2849FC0019D
:1010B0001124C1E0D0E002C0CC0FDD1F2A95E2F779
:1010C000C82BD92BDA6866C0D82FCC27C46FD06A5A
:1010D00061C0D82FCC27C06FD06A5CC08C2F8F70B6
:1010E000806E90E0906A24E0D695C7952A95E1F746
:1010F000CF709C013C2BE9014DC0C0E0D0E04AC05C
:10110000C1E8D0E447C0C3E8D0E444C0C2EED4E4B0
:1011100041C0C9EED4E43EC0CAEED4E43BC0C5EB46
:10112000D4E438C0C6EBD4E435C0C3EBD4E432C059
:10113000C4EBD4E42FC0C7EBD4E42CC0CCECD4E493
:1011400029C0CDECD4E426C0C3E8D5E423C0CAE866
:10115000D5E420C0C2E9D5E41DC0C4E9D5E41AC075
:10116000C1E2D6E417C0C3E2D6E414C0C4E2D6E4B8
:1011700011C0C5E2D6E40EC0C6E2D6E40BC0C7E299
:10118000D6E408C0CFE6D4E405C0C0E7D4E402C08A
:10119000CAE2D6E4CE01DF91CF910895823891055D
:1011A00049F1B0F48133910509F458C048F489320B
:1011B000910509F44EC08A32910509F454C008958E
:1011C0008533910509F440C08933910599F008955C
:1011D000833E910529F138F4803E910591F0823EDD
:1011E0009105A1F00895863E9105F9F0873E91059D
:1011F00031F108952091020220FD3AC021FD38C04E
:1012000008958091020280FD35C032C080910202B3
:1012100082FF32C08091020284FD30C083EE39C06B
:101220008091020282FD28C0F5CF8091020283FFE7
:1012300027C08091020284FD21C087EE2AC08091E0
:10124000020283FD1DC0F5CF8091020285FD1AC008
:101250001BC08091020285FD17C014C0809102025C
:1012600086FD14C015C08091020286FD11C00EC01B
:1012700080EE0FC089E30DC082EE0BC080E009C094
:1012800086EE07C089E205C085E303C08AE201C09B
:1012900081E390E008959091020292FF0DC0282F03
:1012A0002871283019F4877F846006C0282F2471A4
:1012B000243011F48B7F886093FF0DC0282F287194
:1012C000283119F4877E846106C0282F24712431C7
:1012D00011F48B7E886194FD877E0895909352016E
:1012E000809351010895E0915101F091520130979E
:1012F00021F00190F081E02D099480E00895E091C3
:101300005101F0915201309721F00280F381E02DDC
:1013100009940895E0915101F0915201309739F00C
:1013200022E0DC012C930480F581E02D09940895DE
:1013300020914F01309150018217930771F09093E3
:10134000500180934F01E0915101F091520130978B
:1013500021F00680F781E02D0994089520914D0138
:1013600030914E018217930771F090934E01809354
:101370004D01E0915101F0915201309721F000842C
:10138000F185E02D0994089585B7806885BF85B7FC
:10139000806885BF089508950E94C4090C94CB0904
:1013A00081E008950E947B160E940B040C940417A0
:1013B0004F925F927F928F929F92AF92BF92CF9205
:1013C000DF92EF92FF920F931F93CF93DF93CDB7EE
:1013D000DEB72A970FB6F894DEBF0FBECDBF0E94CE
:1013E00059040E94D009811111C08FEF89838A832B
:1013F0001B820E9484168160782F9D838C83498193
:101400005A816B818D810E94960A57C094E5C92E3E
:1014100091E0D92E00E010E0AA24A394B12C702E04
:10142000802F0E944B054C01F601419051906F01B5
:10143000482659264114510431F40F5F1F4F0630DE
:10144000110569F7D2CF8091E50181FD0E94540515
:1014500020E030E07501022E02C0EE0CFF1C0A9461
:10146000E2F7C70184219521892B09F12E837F8220
:101470008E209F2091E0892809F490E098870E94AF
:1014800084168160782F9A8789874E815F8168856D
:101490008A850E94960A000F111FF801EC5AFE4F30
:1014A00080819181E826F926F182E08206C02F5FD3
:1014B0003F4F2E30310571F6C0CF0E949718109122
:1014C00053010E9473091817D9F00E947309809381
:1014D00053012A960FB6F894DEBF0FBECDBFDF9141
:1014E000CF911F910F91FF90EF90DF90CF90BF9021
:1014F000AF909F908F907F905F904F900C9470056D
:101500002A960FB6F894DEBF0FBECDBFDF91CF9104
:101510001F910F91FF90EF90DF90CF90BF90AF9011
:101520009F908F907F905F904F900895CF93DF931F
:10153000CDB7DEB72B970FB6F894DEBF0FBECDBF89
:101540004F83588769877A878B87DE01119686E0FB
:10155000FD0111928A95E9F785E0FE013796019029
:101560000D928A95E1F749815A816B817C818D8149
:101570009E810E94B8112B960FB6F894DEBF0FBE65
:10158000CDBFDF91CF910895FC01808191810E94B0
:1015900082140895882309F41AC18238C1F40E9484
:1015A000730981FD14C169E38091020190910301E7
:1015B0000E94F2150E94E1142FEF81EE94E0215079
:1015C00080409040E1F700C0000069E319C0833813
:1015D000F9F40E94730980FDFAC063E5809102016D
:1015E000909103010E94F2150E94E1142FEF81EE09
:1015F00094E0215080409040E1F700C0000063E596
:1016000080910201909103010E94F4150C94E11461
:101610008438C1F40E94730982FDD9C067E48091C7
:101620000201909103010E94F2150E94E1142FEF34
:1016300081EE94E0215080409040E1F700C000002E
:1016400067E4DECF9CEF980F913A40F4682F8091C9
:101650000201909103010E94F215D8CF90E2980FF9
:10166000983050F4877091E001C0990F8A95EAF79D
:10167000892F0E941715CACF9BE5980F933070F4FD
:10168000853A29F0863A31F083E890E005C081E898
:1016900090E002C082E890E00C94980998E5980FD9
:1016A000973108F08EC0883A09F445C0893A09F4A8
:1016B00045C08A3A09F445C08B3A09F445C08C3AD2
:1016C00009F445C08B3B09F445C08C3B09F445C087
:1016D0008D3A09F445C0803B09F445C08E3A09F4BF
:1016E00045C08F3A09F445C0813B09F445C0823BAF
:1016F00009F445C0833B09F445C0843B09F445C067
:10170000853B09F445C0863B09F445C0873B09F495
:1017100045C0883B09F445C0893B09F445C08D3B71
:1017200009F445C08E3B09F445C08A3B09F445C025
:1017300080E090E044C082EE90E041C089EE90E00D
:101740003EC08AEE90E03BC085EB90E038C086EB6F
:1017500090E035C083EB90E032C084EB90E02FC086
:1017600087EB90E02CC08CEC90E029C08DEC90E0F1
:1017700026C083E891E023C08AE891E020C082E996
:1017800091E01DC084E991E01AC081E292E017C0A7
:1017900083E292E014C084E292E011C085E292E01C
:1017A0000EC086E292E00BC087E292E008C08FE6AE
:1017B00090E005C080E790E002C08AE292E00C94DD
:1017C000AE09803F20F00E949F170C948C1808955A
:1017D000882309F464C0823879F40E94730981FF78
:1017E0005EC069E380910201909103010E94F215AD
:1017F0000E94E11469E310C08338B1F40E947309B8
:1018000080FF4DC063E580910201909103010E9429
:10181000F2150E94E11463E58091020190910301A9
:101820000E94F4150C94E114843879F40E94730931
:1018300082FF35C067E480910201909103010E940C
:10184000F2150E94E11467E4E7CF9CEF980F913AFC
:1018500010F4682FE1CF90E2980F983050F4877021
:1018600091E001C0990F8A95EAF7892F0E941D1512
:10187000D9CF9BE5980F933020F480E090E00C9452
:10188000980998E5980F973120F480E090E00C9447
:10189000AE09803F20F00E9407180C948C18089520
:1018A000882321F00E9417150C94E11408958823D1
:1018B00021F00E941D150C94E11408954F925F923F
:1018C0006F927F92BF92CF92DF92EF92FF920F932F
:1018D0001F93CF93DF937C01D62FC72FFC01058187
:1018E00002950F70128111110E9434150E94DA14B2
:1018F000882379F0112369F080E28D0F883048F059
:1019000082E00E94C3140E94DA1491E0B82EB92636
:1019100001C0B12CCC2EC2948FE0C822D12CF6018C
:10192000E859FF4F0C945B208C2F807FCF70882369
:1019300011F0C295C07F112399F0CC2309F4CFC1D7
:1019400080E28D0F883010F0D11104C08C2F0E94DE
:10195000171503C08C2F0E9427150E94E114BFC1E8
:101960008D2F0E94E80BCC2309F4DEC180E28D0F9D
:10197000883010F0D11104C08C2F0E941D1503C0B7
:101980008C2F0E942D150E94E114CEC18C2F807FD8
:10199000CF70803211F0C295C07FDD2319F0D130B5
:1019A000C9F022C0112371F0002341F0013031F45D
:1019B0000E944D158C2B0E944715B6C10E944D15F3
:1019C0008C2B46C1002319F0013009F4ADC10E94EF
:1019D0004A1518C0112321F0063008F0A5C10EC029
:1019E000053008F0A1C10EC0112351F0002331F0E1
:1019F000F701858180FF73C18F7085838C2F28C18B
:101A000001117EC18C2F2AC18C2F869586958370FB
:101A100090E0009719F0019761F086C1112321F041
:101A20008D2F9C2F937002C080E090E00E94980957
:101A30008BC1112321F08D2F9C2F937002C080E069
:101A400090E00E94AE0980C11123F9F0D53F51F01A
:101A5000D63F71F0D43FA9F48091FC019091FD0133
:101A600081600BC08091FC019091FD01826005C0F6
:101A70008091FC019091FD0184609093FD01809321
:101A8000FC018D2F0E949F171EC0D53F51F0D63FFD
:101A900071F0D43FA9F48091FC019091FD018E7FFB
:101AA0000BC08091FC019091FD018D7F05C080915C
:101AB000FC019091FD018B7F9093FD018093FC01CF
:101AC0008D2F0E9407180E948C183EC18C2F8370A6
:101AD00009F050C0111134C18D2F82958695877001
:101AE000880F880F9D2F9F70492E512C612C712CCF
:101AF000082E04C0440C551C661C771C0A94D2F7AF
:101B0000D4FF14C00FE010E020E030E0B901A801DC
:101B100004C0440F551F661F771F8A95D2F7CB016B
:101B2000BA01609570958095909503C060E070E073
:101B3000CB01C695C695C370D0E0C230D10561F027
:101B4000C330D10581F06429752986299729219709
:101B500071F00E94FD12F4C0642975298629972925
:101B60000E940F13EDC00E94FD12C301B2010E943A
:101B7000EB12E6C0112319F08C2F817001C08695FD
:101B8000882309F4DDC08D2F829586958770880F94
:101B9000880F9D2F9F70492E512C612C712C082E7F
:101BA00004C0440C551C661C771C0A94D2F7D4FF61
:101BB00014C00FE010E020E030E0B901A80104C03B
:101BC000440F551F661F771F8A95D2F7CB01BA01C4
:101BD000609570958095909503C060E070E0CB01B2
:101BE000C695C695C3704C2F50E04230510569F040
:101BF0004330510589F06429752986299729413098
:101C0000510571F00E94C3139BC064297529862970
:101C100097290E94D51394C00E94C313C301B20137
:101C20000E94B1138DC08D2F90E0FC01E05EF109A0
:101C3000E531F10508F04FC0E858FF4F0C945B20E8
:101C4000DF708C2F8F71112331F00E944A138D2F7A
:101C50000E94500C69C00E946B138D2F0E94570C7C
:101C600063C0112341F0053008F05EC08C2F8F71E6
:101C70000E94901359C0063008F056C0F7CF1123C8
:101C800039F08C2F8F710E944A134EC01123C9F373
:101C90008C2F8F710E946B1347C0112329F08C2F5A
:101CA0008F710E94351340C00E9430133DC0112334
:101CB00049F0CF718C2F0E944A1363E08C2F0E9451
:101CC000BA1432C081E00E94C314023068F182E08D
:101CD0000E94C31429C0112331F0002391F28D2FEB
:101CE0000E94CA0A21C0002399F2D93349F45FEF58
:101CF00067EE73E0515060407040E1F700C00000B3
:101D00008D2F0E94E80B10C04C2F4F706D2FC70114
:101D10000E94FF060E945C1217C04C2F4F706D2F5F
:101D2000C7010E94020710C088E0C816D10441F024
:101D30005CF0EAE0CE1AD108F2E0CF16D10420F42C
:101D40000E9473090E947005BB20F1F00E94B61436
:101D500080FD1AC0F70112820E94B0140E944A133B
:101D6000C7010E94D20E0E94B014DF91CF911F9143
:101D70000F91FF90EF90DF90CF90BF907F906F908A
:101D80005F904F900C946B13DF91CF911F910F9147
:101D9000FF90EF90DF90CF90BF907F906F905F901B
:101DA0004F9008950F931F93CF93DF93EC01888199
:101DB00099812B813C81232BB9F09F3F11F48F3FF8
:101DC00099F0CE010E948205882371F068817981A3
:101DD0008A810E948D148C010E94E7130E94E812F0
:101DE000B801CE010E945E0CDF91CF911F910F913F
:101DF00008950E9434150E9444158091020190912B
:101E000003010E94F6150E94E1140E9432190E94FB
:101E10008C1880E090E00E94980980E090E00C949B
:101E2000AE090E9424150C94F90E0E948214E92F29
:101E3000E295EF70F0E03297EE30F105B0F4E35741
:101E4000FF4F0C945B20803F91F018F4803E68F4C3
:101E50000EC0843F51F40BC0803E48F0813F29F40E
:101E600006C093FB882780F9089580E0089581E0FB
:101E70000895CF93DF9300D000D01F92CDB7DEB787
:101E80000F900F900F900F900F90DF91CF910895CA
:101E9000CF93DF9300D000D000D0CDB7DEB7269629
:101EA0000FB6F894DEBF0FBECDBFDF91CF9108957E
:101EB0001F93CF93DF93C091610116E0809162017F
:101EC000C81799F0D0E01C9FF0011D9FF00D112460
:101ED000ED59FE4F408151816281738184819581EA
:101EE0000E94480F2196C770E9CFDF91CF911F91D3
:101EF00008954091930150919401609195017091E2
:101F0000960180919701909198010C94480F8091CF
:101F1000980182958F7009F054C0809195018823B3
:101F200009F44FC080916101A09162016091930119
:101F3000709194014091960150919701B6E08A17F3
:101F400009F43FC090E041155105C1F17F3F11F404
:101F50006F3FA1F1B89FF001B99FF00D1124ED5929
:101F6000FE4F218172132AC02081621327C0228173
:101F7000211124C0238134812417350710F4215006
:101F80003109241B350B283C3105C0F42091980100
:101F90002F7020612093980126E0289FF001299F4F
:101FA000F00D1124E859FE4F80818F70806180838D
:101FB00083E991E00E94D20E0C94580F019687702D
:101FC000BECF0895CF92DF92EF92FF920F931F93AF
:101FD000CF93DF93CDB7DEB762970FB6F894DEBF2D
:101FE0000FBECDBF8C0185E0F801DE011D9601908A
:101FF0000D928A95E1F7D8014C9111965C91119759
:1020000012966C9112971396CD90DC9014973091A4
:10201000930170919401809196019091970100979E
:1020200009F46BC17F3F19F43F3F09F466C1E090AA
:102030009501EE2009F4C0C020919801C816D90678
:1020400028F0F601E81BF90BCF0104C080959095AC
:102050008C0D9D1DFF24F394883C910578F0F12CA4
:10206000207F09F0C6C07C2DD98AC88A89890E9440
:10207000390F83E991E00E94D20EB1C0822F807F98
:1020800009F046C0751314C0341312C0611110C09A
:102090002F702061209398010E94790F83E991E0CD
:1020A0000E94D20E80919801D80115968C932EC073
:1020B000CD2819F15F3F11F44F3FF9F0F62E611171
:1020C0001CC0809161012091620136E0821709F401
:1020D0005AC090E0389FF001399FF00D1124ED595E
:1020E000FE4F7181571306C07081471303C0728180
:1020F000711103C001968770E9CFF62E662309F4AB
:1021000027C180919801816080939801F12C20C1B2
:10211000751308C0341306C0611104C08091980182
:10212000D801C3C04D875E878D859E856A8B0E94CE
:10213000150F6A898823E1F16623D1F12091980176
:10214000822F82958F7090E0029774F080919301B6
:102150009091940198878F831986DB86CA862C8795
:10216000CE0107960E94D20E86E0F801A3E9B1E005
:1021700001900D928A95E1F70E94870F0E94790FD6
:10218000FF24F394E5C04D875E878D859E850E9470
:102190008214292F22952F7030E0223031050CF067
:1021A000CBC09F7009F0C5C0805E883008F4D0C0F5
:1021B000C8010E94D20EE4CFC816D90608F453C055
:1021C000F601E81BF90BCF01883C910508F450C0DB
:1021D000F12C7C2DD98AC88A89890E94390FE3E9BC
:1021E000F1E086E0DF011D928A95E9F70E94790F00
:1021F000AFC0751314C0341312C0611110C08091A8
:102200009801F8018583C8010E94D20E86E0E3E9B7
:10221000F1E0DF011D928A95E9F7FE2C99C04D8708
:102220005E878D859E856A8B0E94150F6A8988233B
:1022300009F4BECF662309F4BBCF20919801822F09
:1022400082958F7090E002970CF48ECF809193016D
:10225000909194019A8389831B82DD82CC822E83A4
:10226000CE0101967FCF809590958C0D9D1DACCFB2
:10227000F62E662309F49CCF75132EC034132CC0A0
:102280002091980120FD1FC0822F82958F70D9F078
:10229000D80115962C9315978F3049F08F5F982FA2
:1022A0009295907F822F8F70892B15968C93C80101
:1022B0000E94D20E86E0F801A3E9B1E001900D92F0
:1022C0008A95E1F793CF86E0F801A3E9B1E00190A8
:1022D0000D928A95E1F73CC04D875E878D859E857E
:1022E0000E94150F811140CF8091980181608093E9
:1022F0009801C8010E94D20E2BC0662309F458CF62
:102300004D875E878D859E850E94150FF82E882348
:1023100009F44ECF86E0F801A3E9B1E001900D92F7
:102320008A95E1F783E991E00E94C40A0E94870F31
:102330005DCF811139CF0CC0243031050CF038CF7E
:102340009F7009F431CFF8019581907F09F02CCF6F
:102350008F2D62960FB6F894DEBF0FBECDBFDF9112
:10236000CF911F910F91FF90EF90DF90CF90089544
:102370001F93CF93DF93CDB7DEB72C970FB6F894AA
:10238000DEBF0FBECDBF4F83588769877A878B87A3
:102390009C87CE0107960E94E20F882369F08F8107
:1023A00098852A853B85232BF1F19F3F09F063C077
:1023B0008F3F09F060C037C086E0FE013796DE012E
:1023C000119601900D928A95E1F76F817885EA85E3
:1023D000FB85309741F17F3F11F46F3F21F1209150
:1023E000620130E0C901019687709927409161012F
:1023F00050E08417950709F447C069837A83FD8309
:10240000EC8396E0929FD001939FB00D1124AD59BB
:10241000BE4FFE01319601900D929A95E1F780939F
:1024200062010E94580F16E0809161019091620153
:102430008917C1F1189FC00111248D599E4F0E9428
:10244000E20F882379F1E09161011E9FF0011124D0
:10245000ED59FE4F40815181628173818481958164
:102460000E94480F8091610190E001968770992742
:1024700080936101D9CF4F81588569857A858B8595
:102480009C850E94480FCFCF0E94110F10926201CD
:1024900010926101E3E9F1E086E0DF011D928A9587
:1024A000E9F7C1CF2C960FB6F894DEBF0FBECDBFB3
:1024B000DF91CF911F910895EF92FF920F931F9399
:1024C000CF93DF938C01892B09F46CC0F12CEE249F
:1024D000E394E8012196F8018491843740F4843034
:1024E00008F051C0813081F0823019F15BC085372E
:1024F00009F444C0A8F19CE7980F903708F052C047
:102500008F770E94E80B41C00E5F1F4FFE01C49100
:1025100080E28C0F883048F4C7708E2D01C0880F80
:10252000CA95EAF70E94371514C08C2F0E94CA0A78
:102530002DC00E5F1F4FFE01C49180E28C0F8830CA
:1025400058F4C7708E2D01C0880FCA95EAF70E9413
:102550003D150E94E1141AC08C2F0E94E80B16C092
:102560000E5F1F4FFE01C491CC2381F08FE99FE0E5
:102570000197F1F700C00000C150F6CF0E5F1F4F6A
:10258000FE01F49003C00E94CA0A8E018F2D882399
:1025900009F49FCFEFE9FFE03197F1F700C00000A9
:1025A0008150F5CFDF91CF911F910F91FF90EF9068
:1025B000089508950C94D9120E94DA126093D40100
:1025C0007093D5018093D6019093D7010C94F90EA6
:1025D00008950C94DC120F931F930091D401109175
:1025E000D5012091D6013091D701602B712B822B20
:1025F000932B1F910F910C94DC120F931F9300915A
:10260000D4011091D5012091D6013091D7016023DA
:102610007123822393231F910F910C94DC120F934B
:102620001F930091D4011091D5012091D6013091D2
:10263000D70160277127822793271F910F910C9450
:10264000DC1208950C9421130E9422136093D00190
:102650007093D1018093D2019093D3010C94F90E21
:1026600060E070E0CB010C9424130F931F9341E0C2
:1026700050E060E070E08A019B0104C0000F111F70
:10268000221F331F8A95D2F7C901B8011F910F91FC
:102690000C9424130F931F9341E050E060E070E02E
:1026A00004C0440F551F661F771F8A95D2F780918B
:1026B000D0019091D101A091D201B091D3018A01B2
:1026C0009B01082B192B2A2B3B2BC901B8011F9109
:1026D0000F910C9424130F931F9341E050E060E09E
:1026E00070E004C0440F551F661F771F8A95D2F70C
:1026F00040955095609570958091D0019091D10151
:10270000A091D201B091D3018A019B010823192322
:102710002A233B23C901B8011F910F910C94241364
:102720000F931F9341E050E060E070E004C0440F5D
:10273000551F661F771F8A95D2F78091D00190911F
:10274000D101A091D201B091D3018A019B01082748
:1027500019272A273B27C901B8011F910F910C9413
:1027600024130F931F930091D0011091D101209158
:10277000D2013091D301602B712B822B932B1F91AF
:102780000F910C9424130F931F930091D00110917B
:10279000D1012091D2013091D30160237123822392
:1027A00093231F910F910C9424130F931F93009167
:1027B000D0011091D1012091D2013091D301602735
:1027C0007127822793271F910F910C94241308954A
:1027D0002EE0929F800D1124A82FA695A695A69570
:1027E000877051E001C0550F8A95EAF785E0A89FF0
:1027F000D001112420E030E070E0F901EA0FFB1F66
:10280000E756FE4F4081CB01022E02C09695879578
:102810000A94E2F78170992781958427852384277C
:1028200080832F5F3F4F2530310539F708952EE023
:10283000929F800D1124682F669566956695982F56
:10284000977085E0689FB001112440E050E080E07F
:10285000FA01E60FF71FE756FE4F208130E0092E00
:1028600002C0369527950A94E2F721703327042E8B
:1028700001C0220F0A94EAF7822B4F5F5F4F453069
:10288000510531F70895CF92DF92EF92FF920F93A7
:102890001F93CF93DF938C01C090D401D090D501CA
:1028A000E090D601F090D7018091D0019091D101B4
:1028B000A091D201B091D301C82AD92AEA2AFB2AD1
:1028C000CFE1D0E0D701C6010C2E04C0B695A79584
:1028D000979587950A94D2F780FF06C0B8018C2F90
:1028E0000E941D07019721F4219760F780E001C045
:1028F0008C2FDF91CF911F910F91FF90EF90DF9080
:10290000CF900895CF93DF93EC010E944314BE0152
:102910000E941D07DF91CF9108951F93CF93DF93FE
:10292000EB0190916001992321F0CB010E94821468
:1029300013C0882349F0CB010E944314182F682F3D
:10294000CE010E94E81304C0CB010E941714182F77
:10295000BE01812F0E941D07DF91CF911F91089525
:102960008091D80185958595859508958091D801A8
:102970008770089598E0899F90011124262B209359
:10298000D8010C944A132091D8018095822380931A
:10299000D801982F977069F430E0482F082E000C6A
:1029A000550B2417350729F08595859585950C9449
:1029B0006B1308959091D801977081E009F480E03D
:1029C0000895E0910201F09103018091E401808378
:1029D000E0910201F091030190818091E301892B44
:1029E0008083E0910201F091030190818091E201E6
:1029F000892B80838091D901882381F0E0910201A5
:102A0000F09103019081892B808380910201909144
:102A100003010E94C01581111092D9018091020119
:102A2000909103010C947F098091E40108959091A5
:102A3000E401892B8093E401089580959091E4014D
:102A400089238093E40108951092E4010895909100
:102A5000E301892B8093E301089580959091E30130
:102A600089238093E30108951092E30108959091E2
:102A7000E201892B8093E201089580959091E20113
:102A800089238093E20108951092E20108958093D2
:102A9000D90108951092D90108958091D90108951E
:102AA00080E090E00E947D2021E08D3E9E4F09F065
:102AB00020E0822F089582E090E00C94752083E05E
:102AC00090E00C94752084E090E00C947520682FC1
:102AD00084E090E00C948320AB01BC018FE090E097
:102AE0000C949520AB01BC0183E190E00C949520FF
:102AF00060E070E0CB010C94721560E070E0CB01F7
:102B00000E946C150C9478156DEE7EEF80E090E0DD
:102B10000E94A12060E082E090E00E94832060E0BB
:102B200083E090E00E9483201092D4011092D5019E
:102B30001092D6011092D70160E084E090E00E94EC
:102B4000832060E085E090E00E94832060E086E0E2
:102B500090E00E9483206FEF87E090E00E94832046
:102B600040E050E0BA0188E090E00E94952060E0EB
:102B70008DE090E00E9483200C947D150C948415C8
:102B8000FC01329697E080E0915029F021912223B8
:102B9000D9F38F5FF9CF08959C01FC0132969FEF26
:102BA00080E04191461789F09F3F19F4411101C01F
:102BB000982F8F5F8630A9F79F3F39F0F901E90F11
:102BC000F11D97FDFA95628308950895FC013296F0
:102BD00008962081261301C010823196E817F90764
:102BE000C1F708950C94CC150C94E615029626E0D6
:102BF000FC0111922A95E9F7089508950C94FD15AA
:102C00000E94FE1580910802843049F11092E6017D
:102C100020E488E190E00FB6F894A89580936000D6
:102C20000FBE2093600080E00E9470050E94FE1598
:102C300083B7817F846083BF83B7816083BF7894CB
:102C4000889583B78E7F83BF0FB6F894A89580913F
:102C50006000886180936000109260000FBE08954C
:102C600008950895CF930E9430160E9459040E943F
:102C70003116C0E08C2F0E944B05892B29F4CF5FC1
:102C8000C630C1F780E001C081E0CF91089508957A
:102C90000C9447160E94110F0E9473090E94700540
:102CA0000C9448161F920F920FB60F9211248F9317
:102CB0009F93AF93BF938091E601811113C08091E0
:102CC000FE019091FF01A0910002B0910102419696
:102CD000A11DB11D8093FE019093FF01A0930002FE
:102CE000B0930102BF91AF919F918F910F900FBE52
:102CF0000F901F90189582E084BD93E095BD9AEFE8
:102D000097BD80936E0008952FB7F8948091FE01CF
:102D10009091FF01A0910002B09101022FBF089590
:102D2000CF92DF92EF92FF920F931F932FB7F894F9
:102D30004091FE015091FF016091000270910102EB
:102D40002FBF6A017B01EE24FF248C0120E030E0DC
:102D5000C016D106E206F30610F4415051099A015B
:102D6000281B390BC9011F910F91FF90EF90DF9045
:102D7000CF90089578941F920F920FB60F9211245E
:102D80008F939F93AF93BF938091FE019091FF012A
:102D9000A0910002B09101020196A11DB11D809386
:102DA000FE019093FF01A0930002B0930102BF9136
:102DB000AF919F918F910F900FBE0F901F9018951C
:102DC00081E08093E00080E28093D8001092C900F7
:102DD0008FE19EE40197F1F700C0000087E090EBDF
:102DE000DC018093110290931202A0931302B0931E
:102DF00014029CE088E10FB6F894A89580936000D7
:102E00000FBE90936000FFCF0E945015811102C049
:102E10000E94BE150E945B158093E5010E94631518
:102E200090E090930302809302020E945F15682F46
:102E300070E080E090E00C94E9128091E90180FF5D
:102E40000BC06091070185E0689FB0011124759562
:102E50006795759567952BC081FF09C06091070143
:102E600085E0689FB00111247595679520C082FFA9
:102E700007C06091070185E0689FB001112417C069
:102E80009091EA019923D1F060910601961788F795
:102E90002091070185E0289F90011124929FA001B5
:102EA000939F500D112470E0CA010E9447206038A2
:102EB000710540F46115710539F002C065E070E0FC
:102EC000862F08958FE7089581E008958091E901A4
:102ED00080FF08C06091050170E075956795759554
:102EE000679521C081FF06C06091050170E075956E
:102EF000679519C082FF04C06091050170E010C0A1
:102F00009091EA019923C1F0609104019617A0F70E
:102F100080910501899FC001112470E00E94472023
:102F20006038710528F46115710521F0862F089528
:102F30008FE7089581E0089561E070E0F4CF803F6D
:102F400021F40E941D17819504C0813F29F40E943D
:102F50001D178093EE010895823F21F40E941D17F2
:102F6000819504C0833F29F40E941D178093ED01D1
:102F70000895893F19F40E94661705C08A3F31F40D
:102F80000E94661781958093EF0108958B3F21F48D
:102F90000E946617819504C08C3F29F40E94661731
:102FA0008093F0010895843F21F48091EC018160C9
:102FB00017C0853F21F48091EC01826011C0863FEB
:102FC00021F48091EC0184600BC0873F21F4809153
:102FD000EC01886005C0883F31F48091EC0180618C
:102FE0008093EC0108958D3F21F48091E901816087
:102FF0000BC08E3F21F48091E901826005C08F3FB4
:1030000029F48091E90184608093E9010895803F6B
:1030100039F48091EE0187FF6CC01092EE0169C017
:10302000813F29F48091EE011816BCF362C09091A3
:10303000ED01823F29F497FF5CC01092ED0159C069
:10304000833F19F41916CCF354C0893F41F48091A1
:10305000EF0118160CF04DC01092EF014AC08A3FE4
:1030600029F48091EF0187FF44C0F6CF8B3F39F4FC
:103070008091F00187FF3DC01092F0013AC08C3F73
:1030800029F48091F0011816BCF333C0843F21F479
:103090008091EC018E7F17C0853F21F48091EC0177
:1030A0008D7F11C0863F21F48091EC018B7F0BC096
:1030B000873F21F48091EC01877F05C0883F31F480
:1030C0008091EC018F7E8093EC0113C08D3F21F441
:1030D0008091E9018E7F0BC08E3F21F48091E90140
:1030E0008D7F05C08F3F29F48091E9018B7F80930C
:1030F000E9018091ED0181110EC08091EE018111F5
:103100000AC08091EF01811106C08091F001811108
:1031100002C01092EA0108958BEE91E00E948A09A4
:103120000E9484169093E8018093E70108951F930D
:10313000CF93DF938091E7019091E8010E94901670
:10314000AC019091EA01992321F02091080130E02F
:1031500006C0209109018AE0289F9001112442179E
:10316000530708F47BC08091ED01C091EE01D0912E
:10317000EF011091F001811107C0C1116BC0D11195
:1031800069C0111167C06AC09F3F19F09F5F90939B
:10319000EA01181624F40E941D178093ED01809116
:1031A000ED0187FF05C00E941D1781958093ED01F9
:1031B0001C1624F40E941D178093EE018091EE01ED
:1031C00087FF05C00E941D1781958093EE01309105
:1031D000ED013323E1F02091EE012223C1F045EB14
:1031E0003403C0011124892F990F990B009709F41A
:1031F00081E08093ED0135EB2303C0011124892F79
:10320000990F990B009709F481E08093EE011D1648
:1032100024F40E9466178093EF018091EF0187FFED
:1032200005C00E94661781958093EF01111624F462
:103230000E9466178093F0018091F00187FF05C01E
:103240000E94661781958093F001DF91CF911F91C5
:103250000C948C189F3F09F099CFA1CFDF91CF91AB
:103260001F910895EBEEF1E086E0DF011D928A9553
:10327000E9F71092EA011092E90108958091F901AD
:1032800008950F931F93CF93DF9300D01F92CDB774
:10329000DEB78C010E948E1B823011F0843021F544
:1032A00084E089831B830A8382E08093E9008FEFA7
:1032B0009091E800815095FD06C095ED9A95F1F743
:1032C00000008111F5CF8091E80085FF0DC040E03E
:1032D00050E063E070E0CE0101960E94AB1B80914C
:1032E000E8008E778093E8000F900F900F90DF91A9
:1032F000CF911F910F910895CF93DF9300D01F922C
:10330000CDB7DEB720910802243031F523E02983C0
:10331000805891099B838A8382E08093E9008FEF34
:103320009091E800815095FD06C095ED9A95F1F7D2
:1033300000008111F5CF8091E80085FF0DC040E0CD
:1033400050E063E070E0CE0101960E94AB1B8091DB
:10335000E8008E778093E8000F900F900F90DF9138
:10336000CF910895CF93DF93EC010E948E1B8230A2
:1033700011F08430F9F482E08093E9009FEF8091AE
:10338000E800915085FD06C085ED8A95F1F70000B3
:103390009111F5CF8091E80085FF0CC040E050E02E
:1033A00066E070E0CE010E94AB1B8091E8008E7752
:1033B0008093E800DF91CF910895CF93DF93EC01E4
:1033C0000E948E1B823011F0843039F581E08093A9
:1033D000E9008FEF9091E800815095FD06C095EDD2
:1033E0009A95F1F700008111F5CF8091E80085FFF3
:1033F00014C040E050E068E070E0CE010E94AB1BDA
:103400008091E8008E778093E80088E0FE01A1EFCC
:10341000B1E001900D928A95E1F7DF91CF91089587
:1034200080910702811109C00E94401D0E949D1DCC
:103430008091E20084608093E20008951092070278
:103440000895089508950C944A1642E061EC81E0D5
:103450000E94BA1C42E261EC82E00C94BA1C80919A
:103460000A02833009F453C030F4813071F08230A5
:1034700009F48CC008958A3009F478C08B3009F4BF
:103480005EC0893009F09AC020C080910902813A5B
:1034900009F094C08091E800877F8093E8008091D4
:1034A0000D0290910E02892B21F468E081EF91E0EA
:1034B00003C060E080E090E070E00E94F61B809125
:1034C000E8008B778093E8000895809109028132AB
:1034D00009F074C080910D0290910E02029708F0DD
:1034E0006DC08091E800877F8093E8008091E800BC
:1034F00082FD05C0809108028111F8CF5FC08091E4
:10350000F1008093F9018091E8008B7753C080919E
:103510000902813A09F052C080910D0290910E0289
:10352000892B09F04BC08091E800877F8093E800E9
:103530008091E80080FFFCCF8091140136C080911B
:1035400009028132D9F580910D0290910E02892BEA
:10355000A9F58091E800877F8093E8000E94EF1C26
:1035600080910B02809314010C94110F8091090239
:10357000813221F58091E800877F8093E8000E94E6
:10358000EF1C80910C028093FA010895809109024A
:10359000813AA1F48091E800877F8093E8008091D0
:1035A000E80080FFFCCF8091FA018093F1008091C8
:1035B000E8008E778093E8000C94EF1C089584B7A0
:1035C000877F84BF0FB6F894A895809160008861CA
:1035D00080936000109260000FBE80E880936100CD
:1035E000109261000E94CC090E94401D0E949D1D06
:1035F0008091E20084608093E20078940E942C2005
:103600000E94D2098AE091E00E946E09809108022E
:10361000853069F40E940016809106028823B1F378
:103620000E943216882391F30E94951BEFCF0E94CF
:10363000D809ECCF0C941C1B292F332723303105DC
:10364000C9F064F42130310581F02230310509F0F0
:103650004CC08BE390E022E332E04BC021323105D5
:1036600021F12232310589F140C082E190E02DE65E
:1036700032E03FC099278130910571F02CF4892BFD
:10368000A1F5EEE2F2E00DC08230910541F0039722
:1036900061F5E2EFF1E005C0EEE1F2E002C0E8EF33
:1036A000F1E0849190E09F0124C06115710541F023
:1036B00061307105D1F489E090E02DE532E019C068
:1036C00089E090E024E432E014C06115710541F016
:1036D0006130710551F485E890E02FE732E009C0D0
:1036E00080E490E024E033E004C080E090E020E05B
:1036F00030E0FA013183208308950895CF93C82FD5
:103700000E947D1BC093FB01CF9108958091080218
:10371000843011F081E0089582E008958091FB01EA
:10372000811102C00C94861B089580E189BD82E15D
:1037300089BD09B400FEFDCF8091D8008F7D8093B4
:10374000D8008091E00082608093E0008091E000EA
:1037500081FDFCCF0895CF92DF92EF92FF920F93FD
:103760001F93CF93DF93EC018B016A010E940E1D22
:10377000811133C0C114D10439F0F60180819181E7
:10378000081B190BC80FD91FE12CF12C01151105CD
:1037900019F18091E80085FD16C08091E8008E77D0
:1037A0008093E800C114D10449F0F6018081918131
:1037B000E80EF91EF182E08285E00FC00E940E1D26
:1037C000882321F30AC089918093F10001501109E7
:1037D000FFEFEF1AFF0ADACF80E0DF91CF911F9160
:1037E0000F91FF90EF90DF90CF90089520910F02FE
:1037F000309110022617370748F06115710539F42A
:103800002091E8002E772093E80001C0B90140E044
:1038100061157105A9F120910802222309F443C022
:10382000253009F442C02091E80023FD40C02091DA
:10383000E80022FD32C02091E80020FFE9CF40914E
:10384000F3002091F20030E0342BFC01CF01611530
:10385000710559F02830310540F481918093F100D1
:10386000615071092F5F3F4FF1CF41E028303105A2
:1038700009F040E02091E8002E772093E800C8CFBF
:103880004111C9CF0AC080910802882361F08530B8
:1038900061F08091E80083FD0AC08091E80082FF1A
:1038A000F2CF80E0089582E0089583E0089581E0FA
:1038B000089520910F02309110022617370748F023
:1038C0006115710539F42091E8002E772093E80006
:1038D00001C0B901FC0120E06115710591F18091F1
:1038E0000802882309F440C0853009F43FC0809164
:1038F000E80083FD3DC08091E80082FD2FC08091EB
:10390000E80080FFE9CF2091F3008091F20090E081
:10391000922B6115710559F08830910540F424917E
:103920002093F1003196615071090196F2CF21E0A8
:10393000089709F020E08091E8008E778093E800F6
:10394000CBCF2111CCCF0AC080910802882361F02F
:10395000853061F08091E80083FD0AC08091E80025
:1039600082FFF2CF80E0089582E0089583E0089519
:1039700081E00895982F973058F59093E9009817B3
:1039800039F07091EC002091ED005091F00003C0EF
:10399000242F762F50E021FF19C03091EB003E7F9D
:1039A0003093EB003091ED003D7F3093ED0030918E
:1039B000EB0031603093EB007093EC002093ED004E
:1039C0005093F0002091EE0027FF07C09F5FD3CFF8
:1039D0008F708093E90081E0089580E008958091E0
:1039E000090287FF11C08091E80082FD05C0809127
:1039F00008028111F8CF11C08091E8008B770BC0CD
:103A000080910802882349F08091E80080FFF8CF78
:103A10008091E8008E778093E80008952091E4007B
:103A20003091E50095E64091EC00842F817040FFD5
:103A300022C08091E80080FD1CC08091080288238C
:103A400091F0853091F08091EB0085FD10C04091A0
:103A5000E4005091E5004217530729F39A01915071
:103A600011F784E0089582E0089583E0089581E0ED
:103A7000089580E008954091E80042FFDECF089568
:103A80000E94AE1D0E94B61DE0EEF0E080818160D4
:103A90008083E8EDF0E080818F77808319BCA7ED0B
:103AA000B0E08C918E7F8C9380818F7E808310928A
:103AB000070208950F931F93CF93DF930E94AE1DCB
:103AC0000E94B61DC8EDD0E088818F7788838881F9
:103AD0008068888388818F7D888319BC1092080252
:103AE00010920402109206021092050200EE10E0FD
:103AF000F80180818B7F808388818160888342E0A8
:103B000060E080E00E94BA1CE1EEF0E080818E7FF0
:103B10008083E2EEF0E08081816080838081886034
:103B20008083F80180818E7F808388818061888393
:103B3000DF91CF911F910F910895E8EDF0E0808122
:103B40008F7E8083E7EDF0E080818160808384E078
:103B500082BF81E0809307020C945A1DE8EDF0E0EB
:103B600080818E7F80831092E20008951092DA00A7
:103B70001092E10008951F920F920FB60F92112438
:103B80002F933F934F935F936F937F938F939F9365
:103B9000AF93BF93EF93FF938091E10082FF0BC03F
:103BA0008091E20082FF07C08091E1008B7F8093CB
:103BB000E1000E942B208091DA0080FF1FC08091DD
:103BC000D80080FF1BC08091DA008E7F8093DA00DE
:103BD0008091D90080FF0DC080E189BD82E189BD5F
:103BE00009B400FEFDCF81E0809308020E94101A04
:103BF00005C019BC109208020E941E1A8091E100B3
:103C000080FF19C08091E20080FF15C08091E20022
:103C10008E7F8093E2008091E20080618093E200D9
:103C20008091D80080628093D80019BC85E0809391
:103C300008020E94221A8091E10084FF30C0809126
:103C4000E20084FF2CC080E189BD82E189BD09B416
:103C500000FEFDCF8091D8008F7D8093D8008091A9
:103C6000E1008F7E8093E1008091E2008F7E80935F
:103C7000E2008091E20081608093E2008091040282
:103C8000882311F084E007C08091E30087FD02C023
:103C900081E001C083E0809308020E94231A809192
:103CA000E10083FF29C08091E20083FF25C080915D
:103CB000E100877F8093E10082E080930802109208
:103CC00004028091E1008E7F8093E1008091E20008
:103CD0008E7F8093E2008091E20080618093E20019
:103CE00042E060E080E00E94BA1C8091F0008860B1
:103CF0008093F0000E94211AFF91EF91BF91AF9144
:103D00009F918F917F916F915F914F913F912F91F3
:103D10000F900FBE0F901F9018951F920F920FB625
:103D20000F9211242F933F934F935F936F937F9341
:103D30008F939F93AF93BF93CF93DF93EF93FF93B3
:103D4000C091E900CF708091EC00D82FD17080FD38
:103D5000D0E81092E9008091F000877F8093F00016
:103D600078940E94D11E1092E9008091F000886042
:103D70008093F000CD2BCF70C093E900FF91EF91BD
:103D8000DF91CF91BF91AF919F918F917F916F9173
:103D90005F914F913F912F910F900FBE0F901F9009
:103DA00018951F93CF93DF93CDB7DEB7AA970FB6C1
:103DB000F894DEBF0FBECDBFE9E0F2E088E08E0FE1
:103DC0009091F10091938E13FBCF0E942F1A809156
:103DD000E80083FF28C18091090290910A02492FCF
:103DE00050E04A30510508F01EC1FA01E556FF4F78
:103DF0000C945B20803821F0823809F014C108C08F
:103E00008091050290910602992389F082600FC08B
:103E100080910D028F70873008F005C18093E90012
:103E20008091EB0085FB882780F91092E900909142
:103E3000E800977F9093E8008093F1001092F100E2
:103E4000D0C0282F2D7F09F0EEC0882319F08230D2
:103E500061F0E9C080910B02813009F0E4C0933039
:103E600009F080E0809306022EC080910B02811140
:103E70002AC080910D028F702FEF280F263008F096
:103E8000D2C08093E9002091EB0020FF1CC093304A
:103E900021F48091EB00806214C09091EB0090615E
:103EA0009093EB0021E030E0A90102C0440F551FC0
:103EB0008A95E2F74093EA001092EA008091EB00C5
:103EC00088608093EB001092E9008091E800877F82
:103ED0008093E8000E94EF1CA6C08111A4C010913D
:103EE0000B021F778091E3008078812B8093E300A1
:103EF0008091E800877F8093E8000E94EF1C80910A
:103F0000E80080FFFCCF8091E30080688093E300AD
:103F1000111102C082E001C083E08093080283C0D7
:103F20008058823008F07FC080910B0290910C0283
:103F30008C3D53E0950779F583E08A838AE2898393
:103F40004FB7F894DE01139620E03EE051E2E32FF4
:103F5000F0E050935700E49120FF03C0E295EF702A
:103F60003F5FEF708E2F90E0EA3010F0C79601C0EF
:103F7000C0968D939D932F5F243149F74FBF809159
:103F8000E800877F8093E8006AE270E0CE01019646
:103F90000E94F61B15C060910D0270910E02AE01D9
:103FA0004F5F5F4F0E941A1BBC01892BE1F190917A
:103FB000E800977F9093E80089819A810E94591CBC
:103FC0008091E8008B778093E8002DC0803859F508
:103FD0008091E800877F8093E800809104028093BD
:103FE000F1008091E8008E7773CF81111CC0909111
:103FF0000B029230C0F48091E800877F8093E80044
:10400000909304020E94EF1C80910402811106C06B
:104010008091E30087FD02C081E001C084E08093CD
:1040200008020E94251A8091E80083FF0AC080914F
:10403000E800877F8093E8008091EB0080628093A6
:10404000EB00AA960FB6F894DEBF0FBECDBFDF918E
:10405000CF911F9108950895CF93809108028823EE
:10406000A1F0C091E900CF709091EC00892F817090
:1040700090FD80E8C82B1092E9008091E80083FD54
:104080000E94D11ECF70C093E900CF91089597FB95
:10409000072E16F4009407D077FD09D00E94612006
:1040A00007FC05D03EF4909581959F4F089570953B
:1040B00061957F4F0895EE0FFF1F0590F491E02D5D
:1040C0000994AA1BBB1B51E107C0AA1FBB1FA6175F
:1040D000B70710F0A61BB70B881F991F5A95A9F7B1
:1040E00080959095BC01CD010895F999FECF92BDC0
:1040F00081BDF89A992780B50895A8E1B0E042E023
:1041000050E00C94A920262FF999FECF92BD81BDD5
:10411000F89A019700B4021639F01FBA20BD0FB605
:10412000F894FA9AF99A0FBE08950396272F0E94E1
:1041300084200E948320252F0E948420242F0C9409
:1041400084200196272F0E9484200C948320DC0178
:10415000CB01FC01F999FECF06C0F2BDE1BDF89A92
:10416000319600B40D9241505040B8F70895F8943C
:02417000FFCF7F
:104172002000DA012808140A321E3E19DD19B2198C
:104182007C194119013534C697969492F4F5F6F7E5
:084192003132000000000000C2
:00000001FF
